:020000040000fa
:080000000001040000000000f3
:020000040000fa
:100200004ff3200000792200000188000000000068
:100210000c000700c085220001002000110007002b
:10022000000020000000e000020032000000020098
:100230000000000010290200000000000040da0069
:100240000000fe004440a900600020000000e00023
:100250000300320000002000a00188004440a800f4
:100260000000060091018800800078000000eb008b
:1002700015003700e280400032a0b4009101ba00be
:10028000e280400032a0b4009102ba00e280400057
:1002900032a0b4000002eb00472bde00f507b200ed
:1002a000602ce10004003a000059eb008301e900f2
:1002b000fdff3e00040037006128e100010032002c
:1002c0000082eb00040007001101ba000200e00008
:1002d000e8ff3a00000006003159ba008301e90046
:1002e0000c0032002159ba008301e90008003200f5
:1002f0000400e00003003a00e280400032a0b400b5
:10030000f5ff370011d9ba008301e900faff3a007e
:100310008100e800e180400032a0b4000000060047
:100320008022040000000000ac2204000000000055
:10033000d210040000000000fe10040000000000c5
:10034000561d0400000000005a1d040000000000bb
:1003500066260400000000006a2604000000000079
:100360009213040000000000961304000000000037
:10037000da23040000000000f02304000000000065
:10038000200304000000000022030400000000001d
:10039000dc040400000000008004040000000000f1
:1003a000ee05040000000000c40504000000000089
:1003b00056050400000000008e020400000000004a
:1003c000be06040000000000ee060400000000006d
:1003d0005007040000000000940704000000000023
:1003e000f6070400000000005808040000000000a8
:1003f000b608040000000000dc0204000000000059
:10040000760c0400000000009604040000000000c8
:100410000429040000000000f4170400000000009c
:100420005c220400000000005413040000000000df
:10043000839f68000100e00002003d0060001000a2
:10044000e08018000300e00002003d0060011100a0
:10045000e0811900050007004f00e00002003b00aa
:1004600060001000e0801800000006006022b80064
:10047000060220000000d0008180d2000482d20059
:100480008582d2000000a0000202520083825a003e
:10049000030031000202420083824a000000a100f2
:1004a0000603e900f3ff3a00000006008001eb00bc
:1004b0000200370061f079008301e800828f51006b
:1004c000fcff3a00000006008001eb00020037004c
:1004d000817178008301e800828f5100fcff3a00af
:1004e00000000600800078003004e000feff3a00c3
:0c04f000010050000000e90000000600c0
:020000040000fa
:10000800642a00007c2a0000962a0000b02a00001a
:100018003e2a0000642a0000642a0000642a0000c6
:10002800642a0000642a0000642a00002a1f0000d5
:10003800642a0000642a0000642a0000642a000080
:10004800642a00002e0e0000f00d0000642a000053
:10005800642a0000642a0000642a0000642a000060
:10006800642a0000642a0000642a0000642a000050
:10007800642a0000360a0000c4090000642a00004f
:10008800642a0000642a0000642a0000642a000030
:10009800642a0000642a0000642a0000642a000020
:1000a800642a0000642a0000642a0000642a000010
:1000b800642a0000642a0000642a0000642a000000
:1000c800642a0000642a0000642a0000642a0000f0
:1000d800642a0000642a0000642a0000642a0000e0
:1000e800642a0000642a0000642a0000642a0000d0
:0800f800642a0000642a0000e4
:020000040000fa
:10010800642a00007c2a0000962a0000b02a000019
:100118003e2a0000642a0000642a0000642a0000c5
:10012800642a0000642a0000642a00002a1f0000d4
:10013800642a0000642a0000642a0000642a00007f
:10014800642a00002e0e0000f00d0000642a000052
:10015800642a0000642a0000642a0000642a00005f
:10016800642a0000642a0000642a0000642a00004f
:10017800642a0000360a0000c4090000642a00004e
:10018800642a0000642a0000642a0000642a00002f
:10019800642a0000642a0000642a0000642a00001f
:1001a800642a0000642a0000642a0000642a00000f
:1001b800642a0000642a0000642a0000642a0000ff
:1001c800642a0000642a0000642a0000642a0000ef
:1001d800642a0000642a0000642a0000642a0000df
:1001e800642a0000642a0000642a0000642a0000cf
:0801f800642a0000642a0000e3
:020000040000fa
:0c04fc00000000000000000000000000f4
:020000040000fa
:10050800e05d80000000060080007800c0bb20008d
:10051800311437002000fa00f9ff0700e30f5000fc
:10052800020032000080fa00000006003ccbbf0049
:100538004240a900060034003c6bed00600020003a
:10054800f1ff07000080fa0000000600f7ff3700ff
:100558000004e0001000350000fe2f000f004000ee
:10056800f11f280001187800e2012000f10f200097
:10057800d3ff070000fe2f000f004000a30b070069
:100588008000eb00a0b52000131407000080fa00db
:1005980000000600e5ff37003c6bec00500020002f
:1005a800d9ff07000080fa0000000600dfff3700cf
:1005b800e0b020002e110700a1b12000e0b020001b
:1005c8007f110700a0b1200062b3200004b2200010
:1005d800530920008040eb00908f110001003e007d
:1005e80011c0b300015978000080e800840f500062
:1005f800f8ff3a0060b220006c0b070060b22000e0
:10060800e3b2200002c2b3008040eb00904f11001b
:100618000100360011c0b300014898000000e8004e
:10062800830f5000f8ff3a00c0bb200002140700f7
:10063800a0b52000001437002a1237003708070039
:100648005a100700411307009e110700150d3700c7
:10065800311207008000eb00c0bb2000de1307004a
:100668008000eb00a0b52000db13070000902000fd
:100678001079880080252000007988006000b80083
:100688007d040700f0932000c422b60090ff2f00dd
:10069800d022b600000006000c120700f20f20005e
:1006a80001282200c02a220028120700520f200029
:1006b800210d2100e00f210024120700f20d200077
:1006c80061d52100a0d5210020120700f20b2000df
:1006d80061662200a06622001c120700f20a2000b0
:1006e800213921006039210018120700f209200081
:1006f800a13d2200003f220014120700c0bb2000c9
:10070800a41307000002eb00033220000401780064
:1007180084007800c0bb2000a11307000002eb0092
:10072800033220000401780011002000c0bb200023
:100738009b130700240d2100033220000001eb0069
:1007480021002000c0bb200095130700b20207005b
:1007580031002000c0bb2000911307002432200084
:10076800033220000001eb0041002000c0bb200044
:100778008b13070024322000033220000001eb0015
:1007880051002000c0bb2000851307002432200040
:10079800033220000001eb0061002000c0bb2000f4
:1007a8007f13070024322000033220000001eb00f1
:1007b80071002000c0bb20007913070096020700d3
:1007c80081002000c0bb20007513070092020700bb
:1007d80091002000c0bb2000711307008e020700a3
:1007e800a1002000c0bb20006d13070024322000a8
:1007f800033220000001eb00b1002000c0bb200044
:1008080067130700a0b520006213070082020700e3
:1008180084007800a0b52000611307000002eb00f7
:10082800c34d20000401780021002000a0b520005d
:100838005b1307000002eb00034820000401780066
:1008480011002000a0b52000551307000002eb009e
:10085800e35e20000401780061002000a0b52000bc
:100868004f1307000002eb00435c200004017800ee
:1008780051002000a0b52000491307000002eb003a
:10088800635520000401780041002000a0b5200035
:10089800431307000002eb00e3282000040178005e
:1008a80031002000a0b520003d130700e06b2000b8
:1008b800f60a0700e06e2000d60a0700007520003f
:1008c800d40a070040792000d20a0700607f200080
:1008d800d00a070080852000ce0a0700608b200020
:1008e800cc0a070012c0b300a1002000c02d2000d0
:1008f800bb0d070056ff37002000fa0054ff070021
:1009080000fe2f000f00400047020700ecfe070022
:1009180000fe2f000f004000bc0a07000080fa000c
:10092800000006002000fa00889fbe0000447800fe
:1009380095c0bf004400de00e70060001902800097
:100948003d020700010036004002070040ff070093
:100958000804e00004003a00190288004f04be00b1
:100968000080fa00000006000000280001072000af
:1009780058130700c0fd2f000f004000f11f28008a
:1009880001187800e2012000f10f2000ccfe0700da
:10099800c0fd2f000f0040009c0a070019028800c4
:1009a8004f04be000080fa0000000600eeff37008a
:1009b8002400fa00889fbe00d1fe07000000e00076
:1009c80032003200e30f500005003200ea0f5000f9
:1009d800030032004f04be000080fa000000060049
:1009e800c0fd2f008f044000f02f2800800c7800f5
:1009f800e1fd2f000f844000e2012000f10f2000ec
:100a080008007800aefe07006e0d0700c0af9f001b
:100a1800d1af9f0080fd2f000f00400003000900a8
:100a2800305c78004800b1004000b10036cbbf0010
:100a3800a0e79f0071b3200091407800b1e79f00c4
:100a480038cbbf00c0e79f007b805700e1b2200091
:100a580007000900315878008000b1001079800043
:100a68004800de00d0ef9f0009007800670a070001
:100a78008000eb00a0b52000d71207004f04be008d
:100a88000080fa0000000600d5ff37002000200093
:100a98009dfe07004f04be000080fa00000006001b
:100aa800cfff37002000fa0095fe0700e80f50003e
:100ab8000e00320006003600e90f50002800320010
:100ac800ea0f50001e0032000080fa000000060005
:100ad800e30f5000fcff3a00400020008afe0700a8
:100ae8000080fa0000000600f9ff370000fe2f0022
:100af8000f004000f13f280001187800e2012000b3
:100b0800f10f20006efe0700107980004800de001b
:100b1800a0e79f0000fe2f000f0040003b0a0700df
:100b28003000200078fe07008000eb00a0b5200010
:100b3800a91207000080fa0000000600e4ff370051
:100b480080e42000310a07008000eb00a0b52000f7
:100b5800a11207000080fa0000000600dcff370041
:100b6800c0e62000290a07003000200066fe0700c2
:100b78008000eb00a0b5200097120700edff3700ba
:100b88002000fa003ccbbf00a2c0b3000440bc0068
:100b9800803e2000800f51000100340000017800e1
:100ba8000279880000fe2f000f0040009e01070018
:100bb80043fe070000fe2f000f004000130a070045
:100bc8008000eb00a0b52000831207000080fa0027
:100bd800000006002000fa00c1b320009140780010
:100be8008180fb003dcbbf004800dd0080817000a4
:100bf800618061000204200001003a0000017800d1
:100c0800628061000108200001003a00800078003d
:100c180081007100648061000220200001003a0018
:100c280000017800810071006880610002002100e5
:100c380001003a00000178008100710070806100b5
:100c48000240200001003a00000178008100710094
:100c5800030078000002b2000200220001003a00fe
:100c68000001780081007100030078000004b200e0
:100c78000200240001003a000001780081007100a0
:100c8800030078000008b2000200280001003a00c2
:100c9800000178002016800081007100f293200086
:100ca8000200600080807000211688000300780030
:100cb8000010b2002200200001003a000001780074
:100cc800030078000020b20041002000120032002a
:100cd800801680008100710092ff2f0002006000e2
:100ce800808070008116880000fe2f000f004000f1
:100cf8004d010700f2fd070000fe2f000f00400025
:100d0800c20907008000eb00a0b5200032120700de
:100d18000080fa000000060080007800801680003d
:100d28008100710092ff2f00020060008080700037
:100d38008116880000fe2f000f004000f11f2800d8
:100d480001187800e2012000f10f2000dcfd070007
:100d580000fe2f000f004000ac0907008000eb00e8
:100d6800a0b520001c1207000080fa000000060051
:100d7800e9ff37002000fa00881f7800e0fd2f0007
:100d88000f004000f16f280001187800e2012000f0
:100d9800f10f2000cafd070095c0bf004400de0027
:100da800e7006000180280002301070001003600f8
:100db80026010700e0fd2f000f00400093090700ff
:100dc80018028800100020004f0478000080fa0004
:100dd80000000600889fbe0022010700f02f2000b7
:100de800980f100003003200010078004f04be0085
:100df8000000060095c0bf004400de00e700600068
:100e08001902800042c0bf000080fb004500de00e0
:100e1800808f500005003600c508dd0042c0bf00c5
:100e28007f4060000140700042e0b700b4fd070059
:100e38005a0be20006003a000000e0000b00320006
:100e4800e30f500009003200ea0f5000070032009b
:100e58000040eb00190288008080fb000100780048
:100e68004f04be0000000600e2ff3700210020000a
:100e7800a0b52000d8110700a0b320000f0009007a
:100e8800381878000802b10010c0b30019028800b1
:100e98008080fb00f1ff3700889fbe00f10007004b
:100ea800f01f2000980f10000300320001007800a6
:100eb8004f04be000000060095c0bf004400de00dd
:100ec800e70060001902800042c0bf000080fb00fc
:100ed8004500de00808f500005003600c508dd00a3
:100ee80042c0bf007f4060000140700042e0b70090
:100ef80011002000a0b52000b7110700a0b3200002
:100f08000f000900381878000802b100190288009b
:100f1800100020004f04be0000000600e6ff370066
:100f2800889fbe00cf000700f06f2000980f1000c8
:100f380003003200010078004f04be0000000600e4
:100f480095c0bf004400de00e70060001902800081
:100f580042c0bf000080fb004500de00808f5000cb
:100f680005003600c508dd0042c0bf007f406000b4
:100f78000140700042e0b70061fd07005a0be20033
:100f880006003a000000e0000b003200e30f5000ba
:100f980009003200ea0f5000070032000040eb0061
:100fa800190288008080fb00010078004f04be0011
:100fb80000000600e2ff370061002000a0b5200015
:100fc80085110700a0b320000f0009003818780029
:100fd8000802b10010c0b300190288008080fb002d
:100fe800f1ff3700889fbe009e000700f05f2000d9
:100ff800980f100003003200010078004f04be0073
:101008000000060095c0bf004400de00e700600055
:101018001902800042c0bf000080fb004500de00ce
:10102800808f500005003600c508dd0042c0bf00b3
:101038007f4060000140700042e0b70030fd0700cb
:101048005a0be20006003a000000e0000b003200f4
:10105800e30f500009003200ea0f50000700320089
:101068000040eb00190288008080fb000100780036
:101078004f04be0000000600e2ff370051002000c8
:10108800a0b5200054110700a0b320000f000900ec
:10109800381878000802b10010c0b300190288009f
:1010a8008080fb00f1ff3700889fbe006d000700bd
:1010b800f04f2000980f1000030032000100780064
:1010c8004f04be000000060095c0bf004400de00cb
:1010d800e70060001902800042c0bf000080fb00ea
:1010e8004500de00808f500005003600c508dd0091
:1010f80042c0bf007f4060000140700042e0b7007e
:101108005a0be200070032000040eb001902880089
:101118008080fb00010078004f04be00000006003c
:10112800e9ff3700f6fc0700e30f5000f6ff3a002e
:10113800220fab00f4ff320041002000a0b52000d0
:1011480025110700a0b320000f0009003818780007
:101158000802b10010c0b300190288008080fb00ab
:10116800ecff3700889fbe003e000700f03f2000dc
:10117800980f100003003200010078004f04be00f1
:101188000000060095c0bf004400de00e7006000d4
:101198001902800042c0bf000080fb004500de004d
:1011a800808f500005003600c508dd0042c0bf0032
:1011b8007f4060000140700042e0b7005a0be20037
:1011c800070032000040eb00190288008080fb0015
:1011d800010078004f04be0000000600e9ff370058
:1011e800c7fc0700e30f5000f6ff3a0080007800c4
:1011f800a0b52000f8100700a0b320000f000900d8
:10120800381878000802b10010c0b300190288002d
:101218008080fb00eeff37000002eb0084017800bd
:101228000401780000000600f11f2800011878006a
:10123800e2012000f10f050042c0bf000080fb0062
:101248004500de00808f500000000600c508dd0064
:1012580042c0bf007f4060000140700042e0b7001c
:1012680000000600000478008000eb000000060083
:101278000600fa008001780023020700d0bf9f0013
:10128800e7806000e1bf9f0067016100f2bf9f0037
:101298000000eb005fba9700848f50000100360011
:1012a80010002000828f5000010031002000200033
:1012b8000000400066005000e0807f0012028000bd
:1012c800fe010700010036000102070080ed200042
:1012d80009000900b01978004301b1001202880022
:1012e8000080fa0000000600f07680000000e000b0
:1012f8000c0032000c00340050778000e60f5000dc
:1013080010003200ea0f500018003200e50f5000bc
:1013180011003200a0002000f3010700000ab3000a
:10132800f60107000000060050778000e60f500025
:10133800f8ff3200ea0f500007003200e50f5000b6
:101348000a00320050002000e70107000005b30042
:10135800ea010700f3ff370090002000e2010700d0
:101368000009b300e5010700eeff37006000200028
:10137800dd0107000006b300e0010700e9ff3700c0
:10138800809fbe0086c0a900e07680000000e000d3
:10139800100032001100340040778000e60f500042
:1013a80015003200ea0f500025003200e50f50000a
:1013b8001a0032005000200040778800b0168000e4
:1013c80001ff2f00010060005000b300b016880034
:1013d800d82eec004f00be00004006004077800089
:1013e800e60f5000f3ff3200ea0f50000b00320006
:1013f800e50f500012003200a0002000407788005e
:10140800b016800001ff2f0001006000a000b300ab
:10141800b0168800d82eec00eeff370060002000e0
:1014280040778800b016800001ff2f00010060009f
:101438006000b300b0168800d82eec00e5ff370036
:101448009000200040778800b016800001ff2f0030
:10145800010060009000b300b0168800d82eec00a0
:10146800dcff37003600f800809fbe00829fbe0078
:10147800849fbe00869fbe0086a0a9009aff070031
:101488004f03be004f02be004f01be004f00be001a
:101498003600f900004006000800fa00889fbe00e8
:1014a8008a1f7800b0bf9f00c1bf9f0092bf9f00f6
:1014b800a3bf9f0095c0bf004400de00e7006000a6
:1014c8007a01070001003600810107000042eb00a5
:1014d8008001eb00830378006a84570046ee200001
:1014e80003804100c6ba9700e8807b000100e00055
:1014f800150032006e8557006a817b00828f52008a
:1015080011003200843e2000840f51001a003c0074
:1015180084c12f00840f51001700350084ed20008e
:10152800020b7800850f510023003c00823e20000a
:10153800828f500028003c008100ea0068004000cb
:1015480001307a0014c0b3008301e8000683e80084
:101558008783e800e28f5100e1ff3a000404e000cd
:101568000b003a00190288004f0578004f04be00ae
:101578000080fa00000006000401780084ed2000d5
:10158800020b7800850f5100e8ff34000a0037008d
:10159800407980001c0a070040798000660a07002d
:1015a800190288004f0578004f04be000080fa0039
:1015b80000000600f0ff3700823e2000828f5000b6
:1015c800deff3400820078006800400001307a00b5
:1015d80014c0b300dcff3700820078008100ea0005
:1015e800d6ff3700881f7800813e2000810f500009
:1015f80015003c0081c12f00810f500012003500fa
:10160800000178009ec0bf004400de0029010700e9
:10161800010036002e010700e22eef00f276880066
:101628000200e0000a003a00d208880086a0a9005b
:1016380052778800f0f02f00d622b60018028800f2
:101648004f0478000000060001017800edff370024
:10165800020078000200e000120035006101b900c4
:1016680000102e00010020006ffb07000081eb0036
:101678000000e0000100350000014000a0088000e3
:10168800d2088800800f5100ecff3e001421ef00c3
:1016980015ff0700180288004f04780000000600b4
:1016a800e9ff37000200ea006101b90000102e00ce
:1016b800010020005cfb07000081eb000000e00057
:1016c800edff3d00edff3700881f7800813e2000c8
:1016d800810f500014003c0081c12f00810f500081
:1016e80011003500000178009fc0bf00f10007001d
:1016f80001003600f6000700e02eef00e2768800d1
:101708000200e0000a003a00e208880086c0a9004a
:101718004277880000ff2f00d622b6001802880002
:101728004f0478000000060001017800eeff370042
:10173800020078000200e000120035006101b900e3
:1017480000102e000100200037fb07000081eb008d
:101758000000e0000100350000014000c0088000e2
:10176800e2088800800f5100ecff3e001821ef00ce
:10177800ddfe0700180288004f047800000006000c
:10178800e9ff37000200ea006101b90000102e00ed
:101798000100200024fb07000081eb000000e000ae
:1017a800edff3d00edff37000600fa00889fbe0000
:1017b80000047800d4000700b0bf9f00e7806000f5
:1017c800c1bf9f0067016100d2bf9f000000eb000e
:1017d800bfb99700838f5000010036001000200029
:1017e800828f5000010031002000200000004000de
:1017f8006a005000e0807f00ac000700010036005e
:10180800b300070028009000afff070038009000e1
:1018180074ff070080ed20000900090038187800df
:101828004801b100480090000000e00003003a00c1
:10183800580090000000e000080032004079800065
:101848007109070040798000bb0907001902880068
:101858004f04be000080fa000000060040798000b6
:10186800a7090700190288004f04be000080fa008b
:1018780000000600f9ff3700889fbe00800478004a
:10188800010478000800e000110035000900780024
:101898000900e0000c00350080804000803e2000f8
:1018a800808f500006003c001a21ef001c21ef0039
:1018b800088054004bff07000900440082ff07001e
:1018c8004f04be00000006000900ea00f2ff3700de
:1018d8008800ea00090078000900e000eeff3d00fa
:1018e800f9ff3700889fbe008a9fbe008c1f7800d2
:1018f800800578001cc0b3000005eb0009ee20004d
:10190800190478000800e0000e00320069b897005a
:1019180080004400290090000800e0001300340013
:10192800808f500013003500800078000004eb0021
:101938000a00e00012003a000100780062ff070088
:10194800880c78000a05e8008984e800e20f550051
:10195800ebff3a000c04e0000d003a004f06780057
:101968004f05be004f04be0000000600808f5000e7
:10197800edff34000046eb000a00e000eeff320005
:101988000100780017ff0700880c7800edff37008a
:101998000b0078005a0907004f0678004f05be0073
:1019a8004f04be0000000600f0ff370080007800fa
:1019b8001e21ef002021ef008ea0a9008ec0a900f3
:1019c80086a0a90086c0a90040798000e10f4000e8
:1019d800310032004a090700407980000a090700ef
:1019e8001421ef001a21ef0000c3b3001e61b700f5
:1019f8001fe1a8001821ef001c21ef002061b700ab
:101a080021e1a800d82eef00da2eef00dc2eef003f
:101a1800de2eef00e02eef00e22eef00e42eef00c6
:101a2800e62eef00e82eef00ea2eef0000f02f0080
:101a3800d222b600e82eef0000ff2f00d622b60013
:101a4800ea2eef00f0f02f00d622b6009ec0bf00ad
:101a5800f1c8b300014060000045b3009ee0b70044
:101a68009fc0bf0081cfb300014060005040b30069
:101a78009fe0b7008ea0a8008ec0a8008000eb00f1
:101a880040798000e10f4000010032001100200081
:101a980001007800000006000041eb0060c720004c
:101aa8004f09070040798800cdff370019028000f0
:101ab80002003700e70060001802800042c0bf0043
:101ac8000080fb004500de00808f5000000006000b
:101ad800c508dd0042c0bf007f40600001407000c3
:101ae80042e0b7000000060050778800b01680007a
:101af800f1f02f000100600000000600b016880019
:101b0800da2eec000000060095c0bf004400de009d
:101b1800e109200091407800c408de00f2092000a5
:101b28001241780067006000000006000600fa0015
:101b3800889fbe008a9fbe0098c0bf004400de0098
:101b4800e70060001b028000680107000100360002
:101b58008401070089010700010034005a002000b1
:101b68008004eb008a010700120032008a8f5400bb
:101b7800100031000ec2bf00981080000028a3009a
:101b880007003200517980000100e000f5ff3200c3
:101b980008407800010001000004e000f1ff320075
:101ba800ee80540088f07f008904e800780107007f
:101bb800eeff3a0009017800ee80570000f120009e
:101bc800b90407001b0288004f05be004f04be0081
:101bd8000080fa00000006003600f800809fbe0072
:101be800829fbe00849fbe00869fbe008540a900dc
:101bf8005301070002003a001e0fe20006003a00f7
:101c08004f03be004f02be004f01be004f00be0092
:101c18003600f9000040060080f12000410407006a
:101c2800801088000fc2bf000018a300f4ff3a001c
:101c38001e0fe200f8ff3a004f03be004f02be003d
:101c48004f01be004f00be003600f90000400600fc
:101c5800f1ff37003600f800809fbe00829fbe006b
:101c6800849fbe00869fbe00889fbe008a1f7800a2
:101c78000600fa008520a900400107000100340091
:101c88005a0020008004eb004101070012003200d6
:101c9800890f5500100036000ec2bf009810800052
:101ca8000028a30007003200517980000100e000fd
:101cb800f5ff320008407800010001000004e00050
:101cc800f1ff3200e680540088f07f008904e800c4
:101cd8002f010700eeff3a0009017800e68057005f
:101ce80000f12000700407000080fa004f0578001a
:101cf8004f04be004f03be004f02be004f01be009e
:101d08004f00be003600f90000400600881f78002a
:101d18000e010700f7000700010036001101070057
:101d28001e0fe2000b00320005010700fcff3a001d
:101d380080f12000fb030700f1000700f8ff3a00dc
:101d480080f12000f7030700ed000700f8ff3200dc
:101d5800f3ff3700180288004f04780000000600df
:101d6800889fbe008a1f78000fc2bf000008a3002a
:101d7800fdff320099c0bf00e70060001a02800032
:101d8800da00070001003600f60007000f62a8001d
:101d9800a8108000090020004448dd00cc44de0083
:101da800890470004444dd0070044400e0844c0061
:101db8004448dd00cc40de00810070004440dd0076
:101dc800440e07000f62a9004248dd00ce44de0041
:101dd800890470004244dd000800be003d0e070083
:101de8001a0288004f0578004f04be000000060064
:101df800889fbe008a1f7800000478008104400094
:101e0800890f50000b0039004f0578004f04be00c1
:101e180000000600088154008800780000f12000c6
:101e2800d7030700000444001a028800888f540072
:101e3800f5ff360098c0bf004400de00e7006000f0
:101e48001a02800042c0bf000080fb004500de008f
:101e5800808f5000efff3600c508dd0042c0bf008c
:101e68007f4060000140700042e0b70008815400e4
:101e78008800780000f12000c10307000004440036
:101e88001a028800888f5400eaff3e00deff370000
:101e9800881f780098c0bf004400de00e70060009b
:101ea800180280009100070001003600ad0007000d
:101eb800160fe20002003a0018028800f5ff37000a
:101ec80000f1200097030700180288000080fb003b
:101ed8004f04780000000600889fbe008a1f780023
:101ee800000478007df9070000054400860007001b
:101ef80080000700010036009a0007001e0fe2006c
:101f080007003a008e00070005003a008a0f5400c7
:101f1800030031003880fb0079000700fbff320026
:101f28007f000700e0030700810007000800360073
:101f3800750007006f000700f9ff360089000700e9
:101f480077000700d803070079000700f8ff3e0074
:101f58004f0578004f04be0000000600889fbe00b1
:101f68008a1f78000001780000047800010540000d
:101f7800650007005f0007000100360079000700d0
:101f88001e0fe20002003a006d0007000f00320049
:101f980063000700c4030700650007000800360057
:101fa8005900070053000700f9ff36006d000700cd
:101fb8005b000700bc0307005d000700f8ff3e0058
:101fc8004f0578004f04be00000006008a0f51003c
:101fd800efff3100820078000a0178003180fb00b1
:101fe800801088000fc2bf000018a30002003a004a
:101ff800828f5000f9ff3a0001047800e4ff3700af
:10200800889fbe0080447800500007003900070010
:1020180001003600530007001e0fe2000a003a00d4
:102028004700070008003a000980fb00801088007c
:1020380012c0b300180288000204e000f2ff320068
:102048004f04be0000000600f17880000041eb005c
:10205800d0788000808f5000f6ff310089407800ea
:1020680080f120007e03070012c0b3001802880028
:102078000204e000e4ff3200f1ff3700004178007d
:102088000de2a9008d20a9008520a9008d40a90096
:102098008540a9000fe2a80000ccb3000e62b7008b
:1020a8000de2a8000204e000010032000f42a8007f
:1020b8005179880099c0bf0081cfb300014060000a
:1020c8000024a00099e0b70098c0bf000044a10018
:1020d8000046b30098e0b7008d20a8000204e00095
:1020e800010032008d40a8000000060042c0bf0079
:1020f8000080fb004500de00808f500000000600d5
:10210800801088000e00370099c0bf00e70060000b
:102118001902800042c0bf000080fb0000000600da
:10212800080155008800780080f1200000000600b2
:102138000004440019028800880f550000000600ba
:102148000fc2bf000018a3000000060099c0bf001e
:10215800e70060001802800042c0bf000080fb005a
:1021680000000600c508dd0042c0bf007f406000d7
:102178000140700042e0b70000000600b17880001e
:102188009078800001055000e50f5500000006001a
:102198000ec2bf000008a30000000600807980007e
:1021a800e10f4000080032005507070080798000e1
:1021b80015070700c22eef00c02eef00f093200095
:1021c800c422b600000006000041eb0041062000d2
:1021d800403521008207070080798800c22eef0071
:1021e800c02eef00f0932000c422b60000000600c5
:1021f800f5ff37000800fa00889fbe008a9fbe00de
:1022080018768000e10f54005300320008003100b6
:10221800bbf80700e20f5000780032000000eb0026
:102228004f05be004f04be000080fa000000060003
:10223800e20f5400f9ff3a00a476800061006200c2
:1022480084003a00e30f520082003600e80f520083
:1022580080003e00d64ee200d60032008402e9003b
:102268008580420040ec200061007800c40eb40074
:1022780082522000020040008000d10081bf9f00f0
:1022880070522000808f50000200360002815000fa
:1022980082bf9f00e18f52000d003600130020001e
:1022a80062ec20008300e8000100a1001200900009
:1022b800120040000000d100f080500080b07f0084
:1022c8008381e80064014100838f5200f5ff3e00de
:1022d8000fb89700a2142000110009000280d8004e
:1022e80081017800400a2000808f510001003400ed
:1022f800828151000402d1007d003a000444780034
:102308003000200080f8070050c4b300516420005a
:10231800804f540008003200bf003e0041012000f9
:10232800f44f540004003200c8003e00e54f54004a
:102338006a0032000190200011798800c22eef0057
:10234800100020004f05be004f04be000080fa00b8
:1023580000000600b6ff3700d376800070522000d8
:10236800808f51004a003e00d7cebf000082fb009c
:102378000004e00017003a00e1588000f01820003f
:10238800808f500017003e00a2768000e70f5100b2
:1023980014003e000400ea004f00de0011c0b30044
:1023a80000c05000d7eeb7008200410040ec20008a
:1023b800833078000200e800a07688001000200032
:1023c8004f05be004f04be000080fa000000060062
:1023d80097ff3700e158800000192000808f5000d7
:1023e800e9ff3e00100020004f05be004f04be006c
:1023f8000080fa00000006008dff37000179800098
:102408000000eb001cfd0700d82eef00da2eef00cd
:102418000041eb00e1588000f0182000808f500048
:10242800250036000001fd00d7eeb700d6eeb70054
:102438000001fd00d42eef00100020001076880067
:102448004f05be004f04be000080fa0000000600e1
:1024580077ff3700c22eef00009020001079880027
:102468003000200028f807006000b80002fd0700cf
:1024780080798000b00607000000eb004f05be0021
:102488004f04be000080fa000000060068ff370015
:1024980020002000107688006000b800f6fc0700d5
:1024a800080078004f05be004f04be000080fa0007
:1024b800000006005eff370012c0b3000001fd00f7
:1024c800d7eeb700d6eeb7000001fd00d42eef001e
:1024d8001000200010768800d9ff37005120200016
:1024e80011798800c22eef001000200095ff3700f8
:1024f8000001eb00f0805700855220001180110088
:102508001a003300801878000201e800820f520098
:10251800faff3a008001eb0083027800e7fc2f0005
:10252800484c200079ee2f00dad92f003bc52f0048
:1025380070835700b600780007804000880f50006d
:102548000c0036000500a0008301e800830f52004c
:10255800f8ff3a0005447800700020000508a30041
:1025680068ff3a003000200066ff37000500400091
:10257800e4ff37000980400022062000820f500047
:1025880002003e000520a000efff37000a8040004f
:10259800820f500002003e000540a000eaff37000d
:1025a8000b804000820f5000e7ff3e000560a0004e
:1025b800e5ff37008001780042ec200083007800b6
:1025c8000100a10012009000120040000000d1009c
:1025d800f080500080b07f008381e80064014100f2
:1025e800830f52003aff3600830078000100a100f3
:1025f80012009000120040000000d100f08050004e
:1026080080b07f008381e80064014100830f52009d
:10261800eaff3e002eff370010c5b3001155200019
:10262800804f540044ff320013003e000040e90090
:10263800804f54003fff3a000115200011798800af
:10264800c22eef00100020003eff3700517120001d
:10265800f54f540038ff320010c4b300804f5400c7
:1026680034ff3a001134200011798800c22eef009f
:102678001000200033ff37004145200040c5b3005b
:10268800804f54002cff3200518520000040e800a4
:10269800804f540028ff32000190200026ff3700a9
:1026a800881f780000047800017680000100e000af
:1026b80008003a0000082b00c422b700f09b2b004a
:1026c800c422b60010002000007688004f0478006d
:1026d80000000600e58f500007003e00006c2f0048
:1026e800c4a2b6000100e800007688004f04780014
:1026f80000000600f7ff3700c02eef0000060700b5
:1027080008007800c0050700f0932000c422b60036
:102718004f04780000000600eeff3700fe6eef0061
:102728000000060076f7070080017800e40f5000eb
:1027380005003200eb0f5000030032008000eb0070
:102748000100780000000600fe4ee2007200320030
:102758002278800002007800d80eb5008110200091
:10276800810f50008200360030788000da0eb50004
:10277800810f50007e003600d1152000d05880000f
:10278800810f500094003600e0588000810f5000ff
:102798009100360004012000f0588000810f50009d
:1027a8008d003600421f2000007880000280b900aa
:1027b8008002780040788000850f5000e1003100e9
:1027c8000460a00050788000808f5200d30036004b
:1027d8000420a0006100620002042000ca00320048
:1027e8006200620001082000c1003200810071000f
:1027f8006400620002202000b700320081007100ee
:102808006800620002002100ad0032008100710002
:102818007000620002402000a200320081007100b6
:10282800040078000002b200020022009600320084
:1028380081007100040078000004b2000200240046
:102848008a00320081007100040078000008b2009c
:1028580002002800790032002016800081007100f3
:10286800f29320000200600080807000211688002a
:10287800040078000010b200220020006900320035
:10288800040078000020b2004100200063003200fc
:10289800801680008100710092ff2f000200600006
:1028a800808070008116880050c4b30051642000f5
:1028b800804f52000a003200ab00360010c5b3004a
:1028c80011552000804f520005003200c1003e0023
:1028d8000040e900804f5200ab0032000190200018
:1028e80011798800eb8f5100a90032008000200088
:1028f80005f707006000b800dffb0700d82eef00df
:10290800da2eef00fe6eef001100200001007800c3
:10291800000006008cff3700e158800000192000f5
:10292800808f500085ff36000c2fef000e2fef0030
:10293800082fef000a2fef00022fef00002fef0003
:10294800c076800020788800d076800030788800b3
:10295800007980008000eb00c7fb070010c0b300bf
:10296800feeeb700100020000000060076ff3700da
:10297800e158800000192000808f50006fff36005a
:10298800c176800033788000d076800083015000c3
:1029980082805000a0062000808f500002003e0078
:1029a800808f51001500360011002000d00920004a
:1029b800808f510062ff3600d05880000c2fb40081
:1029c800f05880000e2fb400022fec0001007800b0
:1029d800000006005cff370014012000421f2000a1
:1029e800007880000280b90080027800407880007a
:1029f800850f500072ff390052003700d058800010
:102a0800082fb400f05880000a2fb400002fec0003
:102a180010002000000006004bff370080007800ff
:102a28009bff370000017800040078000020b20006
:102a38004100200096ff3a00f8ff370000017800b7
:102a48002016800081007100f293200002006000cf
:102a58008080700021168800040078000010b20001
:102a68002200200086ff3a00eeff370000017800c0
:102a780081007100040078000008b20002002800fc
:102a880075ff3a00edff3700000178008100710002
:102a9800040078000004b2000200240069ff3a0034
:102aa800f2ff37000001780081007100040078000f
:102ab8000002b200020022005dff3a00f2ff370078
:102ac800000178008100710070006200024020005f
:102ad80052ff3a00f3ff37000001780081007100cf
:102ae800680062000200210048ff3a00f4ff370046
:102af80080007800810071006400620002202000dc
:102b08003eff3a00f4ff37000001780062006200df
:102b18000108200035ff3a00f5ff370010788000e3
:102b2800421f20000280b90072788000800f510097
:102b380027ff3900610062000204200028ff3a00e4
:102b4800f1ff3700107880000280b90062788000b9
:102b5800800f51001aff390050788000808f520092
:102b68001bff3e00edff370041012000f44f5200eb
:102b78005bff32000f003e00e54f520057ff3a005e
:102b88005120200056ff37000115200054ff370060
:102b9800900020005cf607006000b80036fb0700d4
:102ba800d82eef00da2eef00fe6eef0011002000a5
:102bb80056ff370051712000f54f520048ff320090
:102bc80010c4b300804f520044ff3a001134200073
:102bd80043ff37004145200040c5b300804f5200f5
:102be8003fff3200518520000040e800804f52002e
:102bf8003bff32000190200039ff37008000780049
:102c0800300090000081eb000000e000040032007a
:102c1800210090009100780060c078000081fb00de
:102c280002007800000006000001780030009000e3
:102c38008081eb00810f50000800360022009000d0
:102c48008080400012009000808f50000500310005
:102c580012007800614078008081fb000300780052
:102c68000000060080805000120078006140780063
:102c78008081fb00f9ff37000003780081027800ab
:102c880030009000820f50001900360002025000f8
:102c9800830f52001c003e002600900000014100f6
:102ca80016009000800f5100130031000400e0006e
:102cb8000f00320016007800e25a78000201e8009e
:102cc8000402e90016009000800f5100f7ff390058
:102cd8000400e000060032000001eb001600780056
:102ce800e25a78000201e800840f5100fbff3a0025
:102cf800018052000000060000015100800f5100c1
:102d0800f3ff3100e9ff3700030278002600900046
:102d18000001410016009000800f5100e3ff3900c8
:102d2800f5ff37008000780030019000a001900086
:102d38000082eb000200e0000a0032001000780078
:102d4800634078000082fb000200e900b0009800b0
:102d58000301e80011009000800f510003003100ca
:102d6800a200980004007800000006000000eb00b4
:102d7800a00098000400780000000600fbff370060
:102d88008002780002027800300190002003900051
:102d9800840f51002500360004005100b00298004d
:102da8000400430095019000830f50002800310073
:102db800a002980004017800830f53000c0039002a
:102dc80081017800020278000400e0000600320069
:102dd8000001eb0015007800e25978000201e800d4
:102de800840f5100fbff3a000180510000000600eb
:102df8000200e0001200320081017800020278002f
:102e08000281400015007800e0597b000603e800c5
:102e18000402e90015009000800f5300eaff31001a
:102e2800830f5100f7ff3a00e7ff37000000eb007f
:102e3800b0029800a002980095019000deff3700cc
:102e4800810178000180510000000600e8ff37008a
:102e580003005000a002980004017800d6ff370054
:102e680080017800b002900010019000828f52001b
:102e7800050031002000900000824200840f5100bc
:102e880006003600500007000000eb00828f520059
:102e9800010031001000200000000600020252006c
:102ea80049000700f8ff37008002780082037800a5
:102eb800300390002000900000024300950190002c
:102ec800830f5200010039000302520006815100ad
:102ed800870f510001003600070178000600410005
:102ee800b0029800830f52000b003900810178006e
:102ef800020378000600e000060032000001eb0043
:102f080015007800337178000201e800860f51003f
:102f1800fbff3a00b4ff37000200e0000d0032006a
:102f280081017800020378000281400015007800d2
:102f380033707a000402e8000603e90015009000e7
:102f4800800f5200ebff3100830f5100f7ff3a006a
:102f5800e8ff370081017800018051000000060079
:102f6800edff37000001780030029000810f520019
:102f780004003e000000eb0020019800300198009a
:102f880078ff3700010052003001980022009000bd
:102f9800920190000300400001005000808f510012
:102fa80004003600200198000400780000000600a4
:102fb800f4ff370003005000200198000400780057
:102fc80000000600efff37000500e800b001980098
:102fd80013007800017278001301900000000600c9
:102fe800889fbe00e1778000e28f50002d003200fc
:102ff8000c003600e38f500081003200e48f50004f
:1030080065003200e2e2a900e302a900e802a90093
:10301800e822a900fc2eef00b90307004f04be0008
:10302800000006000100e0003a003200e18f500085
:10303800f4ff3a00800020009c0907004404de00e9
:10304800c0002000990907004400de00c1ee2000fe
:10305800914078000041eb00814f54009600390000
:103068000001fd00f4eeb7000001fd0001ef2000b3
:10307800914078000041eb00814f500097003900e3
:1030880002007800f8eeb700e2e2a900e302a80027
:1030980020002000e07788004f04be0000000600f2
:1030a800e0ff370090002000800907004404de009c
:1030b800d00020007d0907004400de00d1ee20008a
:1030c800914078000041eb00814f540028003900fe
:1030d8000001fd00f5eeb7000001fd0011ef200032
:1030e800914078000041eb00814f500018003900f2
:1030f80002007800f9eeb700e302a900e802a80090
:1031080030002000e07788004f04be000000060071
:10311800c4ff37008800200049ee2000080078002e
:10312800620907004400de0000f47c000804e8009f
:10313800f00f5400f9ff3a00e2e2a8001000200066
:10314800e07788004f04be0000000600b5ff370096
:1031580000c1500002007800f9eeb700e302a900b0
:10316800e802a80030002000e0778800e6ff37007a
:1031780008c150000001fd00f5eeb7000001fd0098
:1031880011ef2000914078000041eb00814f500082
:10319800d7ff3100eeff3700b000200043090700d9
:1031a8004404de00f0002000400907004400de006f
:1031b800f1ee2000914078000041eb00814f54006f
:1031c800330039000001fd00f7eeb7000001fd00f3
:1031d80031ef2000914078000041eb00814f500012
:1031e8002500390002007800fbeeb700e822a900ac
:1031f800fc2eef004f04be000000060089ff3700d8
:10320800a0002000290907004404de00e000200097
:10321800260907004400de00e1ee20009140780016
:103228000041eb00814f54000100310008c15000fb
:103238000001fd00f6eeb7000001fd0021ef2000bf
:10324800914078000041eb00814f500001003100af
:1032580000c1500002007800faeeb700e802a900a9
:10326800e822a80040002000e07788004f04be0054
:10327800000006006bff370000c150000200780014
:10328800fbeeb700e822a900fc2eef00d9ff3700bb
:1032980008c150000001fd00f7eeb7000001fd0075
:1032a80031ef2000914078000041eb00814f500041
:1032b800ccff3100f0ff370008c150000001fd00cd
:1032c800f4eeb7000001fd0001ef20009140780006
:1032d8000041eb00814f500069ff310000c15000f0
:1032e80002007800f8eeb700e2e2a900e302a800c5
:1032f80020002000e077880067ff3700881f7800eb
:1033080000047800dee2a900df02a900e402a900b7
:10331800e422a900e2e2a900e302a900e802a90068
:10332800e822a90082002000f10f200040ef2000d1
:1033380063f40700fc2eef0060798000e10f400085
:103348000b003200ee02070060798000ae02070031
:103358008000eb0060798000e10f4000010032003e
:1033680011002000010078004f04780000000600da
:1033780012c0b30088007800407f210018030700be
:1033880060798800f2ff3700fc2eef00607980003a
:103398009d02070060798000e70207000080fb00bb
:1033a8000000060060798000d502370041ef200058
:1033b80007000900315878008000b10000000600bd
:1033c800202eef00222eef00242eef00262eef00f5
:1033d800282eef002a2eef002c2eef002e2eef00c5
:1033e800302eef00322eef00342eef00362eef0095
:1033f800382eef003a2eef003c2eef003e2eef0065
:10340800402eef0010728800000006000102200024
:10341800d2fa3700800278000000e0001500320080
:103428000002eb000001200006e22000860178007f
:103438009300780012c0b300818f5200030032005d
:103448000041eb00f00f50000b0032000402e800ce
:103458000204e00007003a008381e800f00f520000
:10346800f3ff3a00ef0f500002003e00000040005a
:1034780005307b00000005000100e000f3ff3a0082
:103488000400780001417800f0ff370000728800de
:10349800000006000000e0000700320001e2200002
:1034a80002e42000910f5000040032008180e800ff
:1034b800810f5100fbff3a00000006008008eb0076
:1034c8008180e800810f5100f6ff3a00faff3700cb
:1034d8002800fa00889fbe008a1f780093f9070029
:1034e80098c0bf004400de00e700600018028000ba
:1034f80042c0bf000080fb004500de00808f500006
:1035080005003600c508dd0042c0bf007f406000ee
:103518000140700042e0b700b97880002300200025
:103528000001eb0021fd2f008f80400000f12000fa
:10353800d1fd070018028800e18f54000d00360005
:103548009fa8970020202500808f5000100032008f
:103558000c00360020902600808f50000c003200ae
:1035680020202700808f500009003200ff8f540070
:1035780046003e004f0578004f04be000080fa0068
:103588000000060020302400808f5000f7ff3a002a
:10359800e68f5400f7ff360040fd2f000f0440006f
:1035a800f013840001148400008cbe002028280039
:1035b8001040780080df9f0098c0bf004400de0004
:1035c800e70060001a02800042c0bf000080fb00d4
:1035d8004500de00808f500042003e00530020006e
:1035e8000001eb008800780000f12000a2fd070030
:1035f80098009000c808de004fa897004800dd003a
:1036080001007000e7004000898f50004700360035
:103618001a028800127280000200e000d5ff320012
:1036280098009000c808de004fa897004800dd0009
:103638000100700067004000890f5000cdff3e0078
:10364800209026009fa89700808f5000c9ff3a005d
:1036580028409000ec4f500002003200ee4f50001e
:10366800c4ff3a00c0c0b2000080fb000000e900bf
:103678004f00de00020001004f0578004f04be0035
:103688000080fa0000000600beff3700a0fd2f00f2
:103698000f054000010220000a007800d4f9070055
:1036a80008e2200029e42000980078000100e000ea
:1036b800040032000a007800010001000004e00064
:1036c800acff3a000884e800888f5400f6ff3a00ff
:1036d8004f0578004f04be000080fa000000060085
:1036e800a8ff3700c508dd0042c0bf007f4060006a
:1036f8000140700042e0b700530020000001eb00d9
:103708008800780000f120005bfd07009800900019
:10371800c808de004fa897004800dd0001007000cf
:10372800e7004000898f5000b9ff3e0000f12000fb
:103738000cfe0700b6ff3700889fbe008a1f78007e
:1037480002037800030178000002780003002100da
:10375800830240004008de0001002000f707200037
:10376800870f5000e08f5800040032000000eb0083
:103778004f0578004f04be0000000600f0ff2e0041
:10378800800f5200f9ff3600830f5100f7ff3e000b
:1037980002804200830f5000f4ff3e001a028000ae
:1037a80042c0bf000080fb004500de00e60f50006d
:1037b80002003e0000ceb3004260b700490320007b
:1037c80099447800480420001844780034e0ef0059
:1037d8004440a8000000280080004200808070005b
:1037e800060078002ff307000900780034e0b700de
:1037f8004244de00610464004244dd0044c0bf006e
:103808000024a1000840700044e0b7001a028800b4
:10381800100020004f0578004f04be00000006008d
:10382800d6ff3700af02b000889fbe008a9fbe0057
:103838008c9fbe008e1f7800020778000306780070
:103848000001780004002100840140004008de00e7
:1038580001002000f5072000850f5000e08f580078
:10386800070032000000eb004f0778004f06be004b
:103878004f05be004f04be00af02b10000000600b5
:10388800f0ff2e00800f5100f6ff3600840f56001f
:10389800f4ff3e000c804100840f5000f1ff3e0011
:1038a80010028000f0b79f0042c0bf000080fb00fc
:1038b8004500de00e60f500002003e0000ceb300d7
:1038c8004260b70034c0bf00c0ef9f0044c0bf00d3
:1038d8004200de0061006000a0ef9f0034e0ef00ce
:1038e8004440a800ff8661000d8051000c00e000f4
:1038f8003a003200840450000005eb00f6855700ba
:10390800000220000d00500080bf9f000a045600ee
:10391800ff0f5400440036000a00e0004d003a0052
:103928000d00e00040003a008fb99700830f540063
:103938000100360003047800080178008e00780042
:10394800a5fc2f008f8242000d804200d5f20700af
:10395800f0c7b30064e7b700193b8800500424009f
:10396800003b880050052000303b8800a00a20005a
:10397800303b880061e7a8006147e200feff3500a0
:10398800f0c7b30032e0b70089007800a2fc2f002e
:103998000f014100320078008008bb008180e800f8
:1039a8008b0f5100fbff3a0050002400003b8800b9
:1039b80050052000303b8800a00a2000303b8800da
:1039c80061e7a8006147e200feff350008054500f1
:1039d8000902b0008a0f5600ccff3e0061c7a9005b
:1039e8004fe8970034e0b7002fe99700c210dd00d8
:1039f80044c0bf000024a1000140700044e0b700ab
:103a0800ffb1970013028800100020004f077800cc
:103a18004f06be004f05be004f04be00af02b10006
:103a28000000060096ff37000100280001804400ce
:103a380001007000a1fc2f008f8040001f000900ca
:103a4800b05878000102b1000002b1000a00e0009d
:103a5800b5ff320000022000800f5400010036003c
:103a6800000478008a00470008017800a0fc2f00b5
:103a78000f0040008bf20700f0c7b30064e7b700ff
:103a8800193b880050042400003b880050052000a2
:103a9800303b8800a00a2000303b880061e7a8007e
:103aa800b5ff3700682eef0000000600881f780079
:103ab80048738000e10f54002e00320007003900df
:103ac800e20f540043003200e30f54003b00320081
:103ad8000000eb004f0478000000060088f20700a1
:103ae800e40f5000faff3a002e4be20004003a00bf
:103af8002f4be20002003a00344be2007d00320016
:103b0800f04f280060738800e0e62000e1b2200052
:103b1800070009003158780062012000f10f2000e9
:103b280060e7200066f20700c0768000d17680004a
:103b3800010040000000d100507388000179800026
:103b48000000eb004cf70700d82eef00da2eef004c
:103b58005173800060122000808f500060003e008a
:103b680010002000407388004f0478000000060011
:103b7800daff3700c076800031292000810f50001d
:103b880010003600d0768000810f50000d003600fe
:103b9800007980008000eb0037f70700d82eef008f
:103ba800da2eef002000200040738800080078001b
:103bb8004f04780000000600c8ff37002e4be200d3
:103bc80038003200100020004f0478000000060082
:103bd800c2ff37002e4be2002a003a002f4be200ca
:103be80028003a00344be20026003a00354be20048
:103bf80024003a005273800060122000800f5100a8
:103c0800b3ff3e00c0768000d176800001004000fe
:103c18000000d100800f5100eaff3e006000b800ac
:103c280015f7070010798000f00fb2004400dd009e
:103c3800c800de0080c0700050c4b3005264200089
:103c480080cf5000080032004b003e0042012000a7
:103c5800f4cf50000400320055003e00e5cf50007c
:103c68003f00320002902000127988009000200066
:103c780025f20700100020004f047800000006001d
:103c880096ff37006000b800fbf607003000200000
:103c980040738800100020004f04780000000600e0
:103ca8008eff37002f4be200c6ff3a00344be2008c
:103cb800c4ff3a00354be200c2ff3a0000798000a9
:103cc8008000eb00ecf6070020002000407388001d
:103cd800100020004f047800000006007fff370026
:103ce800b000200008f20700100020004073880090
:103cf8009dff3700354be20075ff3200f04f28007a
:103d080060738800e0e62000e1b2200007000900a7
:103d18003158780062012000f10f200060e7200090
:103d2800e7f10700c0768000d176800001004000ee
:103d38000000d10050738800017980000000eb007a
:103d4800cdf60700d82eef00da2eef005173800071
:103d580060122000808f500081ff3600e0ff37009e
:103d6800522020001279880090002000e6f1070018
:103d780010002000c0ff370010c5b3001255200006
:103d880080cf5000b8ff320015003e000040e90027
:103d980080cf5000b3ff3a00021520001279880046
:103da80090002000d8f1070010002000b2ff370073
:103db80052712000f5cf5000abff320010c4b300a1
:103dc80080cf5000a7ff3a001234200012798800f3
:103dd80090002000ccf1070010002000a6ff37005b
:103de8004245200040c5b30080cf50009eff3200fe
:103df800528520000040e80080cf50009aff320032
:103e08000290200098ff3700bf000700010036002d
:103e1800c9000700ef0f5100030036000000eb0057
:103e280013028800000006004310dd006400400013
:103e38000001eb0001da200002b078001000200039
:103e48001302880000000600f7ff37003600f8006c
:103e5800809fbe00829fbe00849fbe00869fbe00da
:103e6800889fbe008460a9008004eb0048da200027
:103e78008880e9001100e000070032002840900027
:103e88000004e000040032001800e800000c78008c
:103e9800910f5000110031008904e80068044400c3
:103ea800f08f5400f2ff3a002079800031798000c9
:103eb80061004000e080480020798800317988005e
:103ec8004f04be004f03be004f02be004f01be00ac
:103ed8004f00be003600f90000400600000ceb0061
:103ee800e8b8970009007800010001008904e8009b
:103ef80068044400f08f5400ddff3a00eaff370001
:103f080081000700010036008b000700ef0f510009
:103f180001003600c1ff37004310dd0061da2000e0
:103f2800010040000048eb00100020001302880048
:103f380000000600f8ff3700730007000100360094
:103f48007d000700ef0f510001003600b3ff370076
:103f58004311dd0061da200010c0b30000f17800e1
:103f6800100020001302880000000600f8ff370048
:103f78007700070014028000650007000100360082
:103f88006d0007000000eb00ef0f51000200360043
:103f980014028800000006004310dd0001da20004a
:103fa800010040006011b8000288be00220098009d
:103fb800330098001000200014028800000006005a
:103fc800f5ff370057000700010036005a000700c8
:103fd80020798000317980001202880000000600f4
:103fe800889fbe008003780001047800824478002e
:103ff8004c000700010036004f0007000700e000f2
:10400800170032000800e000150032000002eb0043
:104018000083eb0005da200023da20001300780083
:10402800e88141008000eb000000e00002003a0057
:1040380085007800040378000402e8000100e0002d
:104048000d003a00e8824200f00f5200f3ff3a00f8
:1040580012028800060078004f04be000000060027
:104068000083eb0012028800060078004f04be00af
:1040780000000600faff3700e9409800870878003a
:10408800980098000000eb00a00098001202880039
:10409800060078004f04be0000000600f0ff37005d
:1040a800881f7800000478000421ef008c60a900c4
:1040b8008460a900242fef00262fef0002082000bb
:1040c8008000eb0000da2000fdf007000800e000a7
:1040d8000b0032000021ef001808880000c3b3006d
:1040e8000461b70005e1a80095c0bf00f1c8b3009e
:1040f800014060000043b30095e0b7008c60a80061
:104108004f04780000000600110007001302800029
:1041180042c0bf000080fb004500de00808f5000d9
:104128000000060095c0bf004400de00e700600004
:1041380012028000f6ff3700c508dd0042c0bf004c
:104148007f4060000140700042e0b70000000600b8
:104158000001780095c0bf004400de00e700600061
:10416800000006000602a80006c2bf000008a3005f
:10417800fdff3a0000000600301080007f0060005c
:10418800fdff3a000642a80006c2bf000028a300af
:10419800fdff3a00000006008040780009c2bf0019
:1041a8000068a300fdff3a000100780002e2b700b2
:1041b80009c2bf000068a300fdff3a0009c2bf00a2
:1041c8000000fb000080ea004f00de00000006004f
:1041d80080407800301080007f006000fdff3a00ca
:1041e8000662a80006c2bf000038a300fdff3a001f
:1041f8000220200012417800301080007f0060000b
:10420800fdff3a000104e00001003a0010c0b300cd
:10421800e1406000c508dd0006c2bf000054a100ef
:104228000140700006e2b7000682a80006c2bf007f
:104238000048a300fdff3a000280fb0000000600d2
:1042480000017800014278008000e9008001eb005d
:10425800e00f2000808f50000e003e000622ef0085
:10426800221088000480fb000000e9004f00de00f7
:104278000040400071202000914078000114a10006
:1042880080c070000100780007e2b70007e2a800cc
:10429800130020000300780000000600889fbe007d
:1042a8008a1f7800004478000105780082047800ad
:1042b800acff07000804a10008407800b6ff07001b
:1042c8000004e000030032000004eb000900e000f5
:1042d80006003a0018002000a7ff07000800780031
:1042e8004f0578004f04be00000006006a407c00bd
:1042f800a9ff07000804e8000004e00002003200fb
:10430800890f5400f9ff3a000804e8009aff0700f3
:10431800080078004f0578004f04be000000060032
:10432800f2ff3700889fbe008a1f7800004478009b
:1043380081447800024578008aff07000804a1003c
:104348000840780094ff07000004eb000004e00038
:1043580005003a0088ff0700080078004f0578003c
:104368004f04be0000000600094078008aff0700dd
:104378000a40780088ff0700180020007eff070029
:10438800080078004f0578004f04be0000000600c2
:10439800f5ff3700889fbe008a9fbe000044780062
:1043a80081057800020578006eff07000804a00068
:1043b8000840780078ff07000004e000030032009e
:1043c8000004eb000a00e0000a003a006aff070058
:1043d800100020004f05be004f04be00000006007c
:1043e800094078007aff0700804d78000904e00052
:1043f800f6ff32000804e8008044eb00880f5500ff
:10440800f7ff360019c0b3000940780070ff0700b5
:10441800804d78000904e000f6ff3a00ebff370012
:10442800889fbe0000447800814478004dff070053
:10443800084078000004a10057ff07000004e000ce
:1044480005003a000084eb004bff070008007800e5
:104458004f04be0000000600094078004eff070028
:10446800301080007f006000fdff3a000622a8009f
:1044780006c2bf00e2446000fdff3a000804a00045
:104488000840780044ff07000004e000edff320018
:10449800094078004eff07000084fb0036ff070044
:1044a800080078004f04be0000000600eaff37004d
:1044b800881f7800000478008c0eec006074880077
:1044c800ec0f500004003e00006c2f00c4a2b600a0
:1044d8004f047800000006008c2eef0008007800da
:1044e80087fe07000800780047fe07004f047800a1
:1044f80000000600f8ff370070798000e10f4000e7
:10450800080032007efe0700707980003efe07003a
:104518008e2eef008c2eef00f0932000c422b60000
:10452800000006000041eb0041062000c0252200e3
:10453800abfe0700707988008e2eef008c2eef00fe
:10454800f0932000c422b60000000600f5ff3700f3
:10455800881f780078748000e20f54002a00320027
:1045680007003600e30f54007d003200e40f5400ca
:10457800540032000000eb004f04780000000600f1
:104588000800e0003f003200e10f5400f9ff3a0054
:10459800c0768000b1122000810f5000350036002f
:1045a800d0768000810f50003200360070588000ad
:1045b80081588000e0748800f17488009058800069
:1045c800a15880000075880011758800b0588000d7
:1045d800c15880002075880031758800200fee00d2
:1045e8008000eb00a4f40700d82eef00da2eef00cd
:1045f8002000200070748800100020004f0478000c
:1046080000000600deff3700c0768000b1122000ef
:10461800810f500017003600d0768000810f5000bf
:10462800140036006000b80093f40700c1e92000c8
:1046380000e92000300107000004e00053003200c8
:104648008301200002e9200000002f00f10720006c
:1046580074fc070030002000707488000000eb0034
:10466800a9ef0700100020004f04780000000600a2
:10467800c3ff3700100020004f0478000000060038
:10468800bfff37008301200002e9200000002f004f
:10469800f107200028fc0700c1e9200000e92000fc
:1046a800150107000004e000270032004000200048
:1046b80070748800080078004f0478000000060035
:1046c800afff370030178000003cb2004600de0024
:1046d8000004e000a7ff3a0089ef07000004780013
:1046e8000000e000a3ff3a001000200086ef07005a
:1046f8007058800081588000807488009174880008
:1047080090588000a1588000a0748800b174880077
:10471800b0588000c1588000c0748800d1748800e7
:10472800007980008800780053f40700c876880074
:10473800d876880010002000707488004f04780034
:10474800000006008eff370070798000fafd070030
:10475800400020007074880008007800d6ff3700f9
:1047680030178000003cb2004600de000004e00084
:1047780080ff320040002000707488000000eb00c9
:104788004f047800000006007dff37007079800034
:10479800e9fd070030002000707488000000eb007d
:1047a80059ef070010002000afff37000000eb00b2
:1047b8002040880010408800004088006180200068
:1047c800315888000130200041588800505888002e
:1047d80060588800000006000c00fa00889fbe00a0
:1047e80047ef070000047800e40f5000080032008b
:1047f800eb0f500006003200e70f50005400320063
:10480800000020004f04be000080fa0000000600ef
:10481800c2002000a1b1200060b02000a2f907006a
:104828006158800030022000808f5000f4ff36006d
:10483800c2002000f080570060b0200050f9070047
:10484800190020002fb897008fb9970000835100f6
:1048580011408000224080000281400022408800f0
:1048680080382100800f510059003c0080c72e007d
:10487800800f5100560035000102530090092000b6
:1048880000a2b9000018200000b0b9007911b900e1
:1048980000004100818049000400400085804800f4
:1048a80066003300c889de00480add004801de00e2
:1048b8000201720016408800843e2000107d20000e
:1048c800800f5100e08f59000e003c0084c12f007a
:1048d800f0822f00f1ff2f00800f5100818f5900c7
:1048e800080035006118b9004f08de0001002000fb
:1048f80000004100818049008180d1000080d30000
:1049080000027800e70f540051003200027980005d
:10491800840078000400e0004b00350001004100ed
:10492800833e2000830f50000100360001815100b2
:104938008400780002007800cff3070009007800af
:104948004f04be000080fa0000000600b0ff3700e8
:104958000008ec0000408800fe0f50002d003e00cb
:10496800e1152000d0588000810f50000300360068
:10497800e0588000810f500023003e0070805700ef
:10498800d2588000e35880000298be00f258800098
:10499800035980000298be001259800023598000f4
:1049a8000288be00190020002fb897008fb9970021
:1049b80000835100114080002240800002814000a5
:1049c8002240880080382100800f5100a7ff340062
:1049d800000178002040880001025300900920005f
:1049e80000a2b9000018200000b0b9007911b90080
:1049f8000000410081804900040040008580480093
:104a0800a8ff3b000d003700f0588000810f5000d0
:104a1800daff36000028ef006000b80096f30700c0
:104a280030002000b8ee0700000020004f04be0050
:104a38000080fa000000060075ff3700f00fb00094
:104a48000180b00097ff37008400ea00b3ff370009
:104a5800840078000000eb0087f307000900780065
:104a68004f04be000080fa000000060068ff37000f
:104a7800889fbe008a9fbe008c1f78008005780042
:104a88000006eb008c40780000ccb30064fe070001
:104a98004804dd00880d78008c40e80000ccb300a5
:104aa8005ffe0700f00fb200800d7400e64046007c
:104ab80000ccb3005afe07004805dd0066844500b7
:104ac8000a0c7800e740460000ccb30054fe07000b
:104ad800f00fb200000c75000c86e8008b85e8002a
:104ae800e60f5600e7ff3a004f0678004f05be0074
:104af8004f04be00000006001800fa00889fbe00a0
:104b08008a9fbe000005780081047800fc85570064
:104b18001a04780019007800800f54000500390045
:104b2800000020004f05be004f04be000080fa00c0
:104b380000000600080150000300200000002000cb
:104b48000101200038ee0700808dbe006142b800e8
:104b58000401b80001a2b90083014200000020004e
:104b6800810020000200500083805800e0bd9f00b3
:104b7800f1bd9f00110020000a85e8008984e80043
:104b8800e885450064805700808f5500e0ff3a00b3
:104b980000fe2f000f00400082ea20000b000900f1
:104ba800301978008001b100010078004f05be007f
:104bb8004f04be000080fa0000000600ddff370049
:104bc800881f78008a9fbe00000378008102780061
:104bd800c7ea200048ec2000fa7f20000b002000e4
:104be80016007800010020001701b8001702900095
:104bf8000480b9008081410067b89700f7b8970032
:104c08000200400083804800140033004509dd009d
:104c18004b00de0000007100cb88de000000e000e1
:104c280016003500f33f2000830f50001c003400ad
:104c3800830a780036009000b0029800e8834300a9
:104c48000683e8008582e800888f5300e4ff3a0075
:104c58004f05be004f047800000006000000450024
:104c680081804d004509dd004b00de000000710029
:104c7800cb88de000000e000eaff3d00800aeb0080
:104c880036009000b0029800e88343000683e800ed
:104c98008582e800888f5300d1ff3a00ecff370087
:104ca800800a780036009000b0029800e88343003c
:104cb8000683e8008582e800888f5300c8ff3a0021
:104cc800e3ff3700326fef0000000600881f78000e
:104cd8000bee070000047800e40f500013003200c8
:104ce800030031000000eb004f04780000000600cc
:104cf800e60f5000fbff3e00324fe2001800320082
:104d0800c076800091142000810f50000300360007
:104d1800d0768000810f50001d003e00100020005a
:104d28004f04780000000600f1ff3700324fe20020
:104d3800ecff3a00d82eef00da2eef000079800061
:104d48008000eb00ccf2070010c0b30032efb700d0
:104d5800100020004f04780000000600e4ff370030
:104d6800d82eef00da2eef00e60f50002a003200ae
:104d7800200fee00800078000000eb00bef2070074
:104d880010c0b30032efb70010002000f1ff370069
:104d98006000b800b8f2070010798000f00fb20088
:104da800e60f540030003200c200dd004808de0083
:104db8000084700070002000d3ed070050c4b300d9
:104dc80051642000804f54000800320019003e0052
:104dd80041012000f44f54000400320026003e0038
:104de800e54f540007003200019020001179880037
:104df800326fef00100020004f047800000006001a
:104e0800bbff37005120200011798800326fef0076
:104e180010002000f8ff3700017980000000eb0047
:104e280095f2070010c0b30032efb7001000200061
:104e3800c8ff370010c5b30011552000804f54003b
:104e4800eaff320017003e000040e900804f54009e
:104e5800e5ff3a000115200011798800326fef0054
:104e680010002000e4ff3700c600dd004808de001f
:104e780000847000cfff370051712000f54f5400b7
:104e8800daff320010c4b300804f5400d6ff3a0056
:104e98001134200011798800326fef0010002000d3
:104ea800d5ff37004145200040c5b300804f54006e
:104eb800ceff3200518520000040e800804f5400aa
:104ec800caff320001902000c8ff37000208200006
:104ed8008000eb0000d2200079ed07001e2def00c6
:104ee80000000600881f7800f86880000800e000cd
:104ef800070032001800900028049000000001000c
:104f08000800e000020032000004e000f9ff32006f
:104f18004f04780000000600881f7800f8688000b9
:104f28000800e0000700320018007800280490000c
:104f38000000e000faff3200000001000800e00075
:104f4800f9ff3a004f04780000000600800278005c
:104f58000000e0001d003200f46880000003eb0050
:104f680003d220000400e00021003200130090006a
:104f7800808f5200150032000600e0001400320055
:104f8800e881410000da2000808f5100f7ff3a00e5
:104f98000600e0000d003200010b780015039800b0
:104fa800320398008000eb0034009000800f51001d
:104fb80019003e0024009000840078000000e00002
:104fc8001100320000027800f7ff370000000500ea
:104fd8000000e000eaff3a0003037800e88141009e
:104fe80000da2000808f5100e0ff3a00e8ff370028
:104ff800f3688800016988001569880024698800b9
:105008003269880010000500000278002403980027
:10501800a6009800100005000100e000fbff3a0020
:1050280024039800f66888001000050080007800c6
:105038000000e00014003200f26880008001eb00fc
:105048000200e0001100320012009000808f500032
:105058000800320022009000820178000000e00081
:10506800090032000001780012009000808f500083
:10507800f8ff3a000300e00005003200220090002b
:10508800a0019800050007000000060000000600c7
:10509800f368880001000700fbff37006000b800d4
:1050a8000089be0020019800310198000000060028
:020000040000fa
:1050b800200e00002400000000000000200f000067
:1050c800040000000200000058020000090000006f
:1050d8000e0b00001001000000000000280f000067
:1050e8000200000002000000ffff0000d80e0000d0
:1050f8001400000000000000240f0000040000005d
:10510800020000000000000000000000a00d0000e8
:105118008000000000000000100f000010000000d8
:105128000200000000000000000000000000000075
:105138000000000000000000000000002a0f00002e
:1051480002000000000000001e0c0000000100002a
:1051580000000000a80e0000180000000000000079
:105168002c0f00000200000002000000ffff0000fa
:10517800ec0e00001200000000000000440e0000c9
:1051880024000000000000008c0e00001c0000003d
:10519800000000002e0f00000200000002000000c6
:1051a800ffff0000680e000024000000000000005f
:1051b800c00e00001800000000000000300f0000c2
:1051c8000200000002000000ffff00001e0d0000aa
:1051d8008200000000000000000800000e0300002c
:1051e80000000000320f0000020000000000000074
:1051f800fe0e000012000000000000000000000089
:020000040000fa
:10520800d042aa000ec2bf000018a300010032005d
:10521800d022a800000006001800fa00881f7800b5
:10522800003c2000e422b700f0932000c022b60022
:1052380098ff2f000004fd00cc22b6000004fd00fa
:10524800c422b6000004fd00d022b6000004fd0010
:1052580001010700e0c920008078880001082000cb
:1052680091788800142fef00162fef00e0c120007e
:10527800c0788800d17888001c2fef001e2fef001f
:105288000cc2bf00084060000ce2b7000c02a90085
:10529800f0002000a01088008000eb0010c0b300d0
:1052a80076f307006049200045f8070011c0b300f5
:1052b80060092000e2fb07003007200078fb0700a8
:1052c80040062000b9f10700100020000bf8070085
:1052d8002df807006e8057000008eb0030107800aa
:1052e800ea8057008008eb00b1107800e68057008c
:1052f8008008eb00b1107800011020000108780048
:10530800fa8057008018eb008018eb008018eb003b
:105318008018eb008008eb00b11078000130200005
:10532800b1b79f00fa805700f3fd070012c0b30021
:10533800411f20004090220029fb0700d6ec0700ff
:1053480063f8070062f80700fdff3700442eef00fe
:105358000000060020728000e10f50001a003200a1
:105368000400310066ec0700e40f5000250032000d
:1053780000000500e20f5000fdff3a00364be20046
:105388003b003a00374be20039003a00384be20064
:1053980037003a00c0768000710c2000810f500061
:1053a80033003600d0768000810f50003000360080
:1053b8006000b80030f10700442eef00a000200084
:1053c80051ec070010000500364be20006003a00d9
:1053d800374be20004003a00384be20002003a0082
:1053e800442eef0000000500460eec0030728800e5
:1053f800e20f5000deff36002000200020728800f7
:1054080000000500364be20004003a00374be2008a
:1054180002003a00384be200d5ff3200d82eef00e8
:10542800da2eef00200fee008000eb0012f10700eb
:10543800f05f28004072880036cbbf004aeeb70004
:1054480037cbbf004beeb70038cbbf004ceeb700f0
:10545800b2012000f10f2000d0e4200018ec070072
:10546800462eef0020002000207288001000050062
:10547800100005003600f800809fbe00829fbe0025
:10548800849fbe00869fbe00881f78008080a90088
:10549800080028000004fd00c4a2b6000004fd00b6
:1054a8003a0007008b0007000004fd00c4a2b60004
:1054b8000004fd003500070086000700f5ff3700ef
:1054c8003600f800809fbe00829fbe00849fbe0009
:1054d800869fbe00c4c2aa002c0007007d000700fa
:1054e800c4c2aa00290007007a000700f9ff3700a4
:1054f8003600f800809fbe00829fbe00849fbe00d9
:10550800869fbe008020a900c4e2aa001f000700f1
:1055180070000700c4e2aa001c0007006d00070025
:10552800f9ff37003600f800809fbe00829fbe005a
:10553800849fbe00869fbe008060a900c582aa0025
:105548001200070063000700c582aa000f000700c9
:1055580060000700f9ff37003600f800809fbe00a2
:10556800829fbe00849fbe00869fbe008040a90027
:10557800c5a2aa000500070056000700c5a2aa0098
:105588000200070053000700f9ff37000000280059
:1055980001070500220620008000eb00c8eb370059
:1055a80080027800020378000000eb00ef8f5000c3
:1055b80008003e006608b9000081e80006b17a00dc
:1055c8006401400003b17a006600400004b07a002c
:1055d8001000200000000600889fbe0080047800ac
:1055e800010478000000eb00ef8f500010003e002f
:1055f800190078006600b9006600400060807c00f1
:105608000000e0000100320000000100880c780072
:105618006640b9000080e800e0807c0010002000af
:105628000100e0000200320001000100100020002b
:105638004f04be0000000600100178006611b90092
:1056480064014100620078000000e00001003200bf
:1056580000000100000006000000eb0000158800b3
:1056680010158800201588005015880001ceb30059
:1056780001407800a062b700300020004015880083
:10568800a5c2bf00014060000004a000a5e2b70069
:10569800a4c2bf0001ccb300014060008042b30047
:1056a800a4e2b700a1e2a8000000060030158800b7
:1056b800a022a800a0c2bf000018a300fdff3a0066
:1056c800a0c2bf000008a300fdff32000014800044
:0456d80000000600c8
:020000040000fa
:1056dc00f03fb1000180b10006003500ee03090077
:1056ec0000000000403fb1000180b100fbff3d0015
:1056fc001000b000203fb00002003500008009000f
:08570c0000000000000006008f
:020000040000fa
:0200000400fffb
:10e000000000000000000000000000000000000010
:10e010000000000000000000000000000000000000
:10e0200000000000000000000000000000000000f0
:00000001FF
